:100000000C9462000C948A000C948A000C948A0070
:100010000C948A000C948A000C948A000C948A0038
:100020000C9482040C948A000C948A000C948A002C
:100030000C948A000C948A000C948A000C948A0018
:100040000C94E0030C948A000C9450040C942A0441
:100050000C948A000C948A000C948A000C948A00F8
:100060000C948A000C948A000000000024002700F1
:100070002A0000000000250028002B0000000008D6
:10008000000201000003040700000000000000005F
:1000900000000000230026002900040404040404D6
:1000A0000404020202020202030303030303010227
:1000B00004081020408001020408102001020408F6
:1000C0001020350511241FBECFEFD8E0DEBFCDBF15
:1000D00011E0A0E0B1E0E6EDF7E102C005900D927D
:1000E000A23BB107D9F723E0A2EBB1E001C01D921A
:1000F000AA39B207E1F710E0C2E6D0E004C02197C8
:10010000FE010E94E30BC136D107C9F70E947B05AF
:100110000C94E90B0C940000A4E7B2E011968C93C8
:10012000119790E0FC01E255FF4FE4911496EC9397
:100130001497FC01E656FF4FE491F0E0EE0FFF1F2D
:10014000E057FF4F8591949113969C938E9312974D
:1001500008950F931F93CF93DF93E0916C03F09179
:100160006D034091D401808510E0481708F064C009
:10017000142F11700091D30101114FC0842F90E012
:10018000880F991FE80FF91F0184F285E02D2CEEEE
:100190003FEF112311F024E130E0C091D101D09163
:1001A000D2012C0F3D1FC90163E470E00E94C80B0F
:1001B000E617F70760F0C90168E270E00E94C80B1B
:1001C0006F5F7F4F81E090E06E177F0710F52C0F77
:1001D0003D1FC90163E470E00E94C80BE617F707F2
:1001E00050F0C90168E270E00E94C80B6F5F7F4F5A
:1001F0006E177F0760F42C0F3D1FC90163E470E0A8
:100200000E94C80BE617F707E8F41FEF15C082E05D
:1002100090E09093D0018093CF010F5F0093D301C2
:100220008091CF019091D0010817190628F0109203
:10023000D3014F5F4093D401812FDF91CF911F9164
:100240000F910895C90168E270E00E94C80B6F5FCA
:100250007F4F6E177F07C8F283E090E0DACFFC0192
:10026000538D448D252F30E0842F90E0821B930B1B
:10027000541710F0CF96089501970895FC01918DC1
:10028000828D981761F0A28DAE0FBF2FB11D5D96C4
:100290008C91928D9F5F9F73928F90E008958FEF66
:1002A0009FEF0895FC01918D828D981731F0828D1A
:1002B000E80FF11D858D90E008958FEF9FEF089571
:1002C000FC01918D228D892F90E0805C9F4F821BD5
:1002D00091098F7399270895FC01A48DA80FB92F58
:1002E000B11DA35ABF4F2C91848D90E001968F735E
:1002F0009927848FA689B7892C93A089B1898C917D
:10030000837080648C93938D848D981306C00288CB
:10031000F389E02D80818F7D80830895EF92FF9295
:100320000F931F93CF93DF93EC0181E0888F9B8D18
:100330008C8D98131AC0E889F989808185FF15C0D2
:100340009FB7F894EE89FF896083E889F9898081F5
:100350008370806480839FBF81E090E0DF91CF91C4
:100360001F910F91FF90EF900895F62E0B8D10E0E6
:100370000F5F1F4F0F731127E02E8C8D8E110CC055
:100380000FB607FCFACFE889F989808185FFF5CFA0
:10039000CE010E946C01F1CFEB8DEC0FFD2FF11D12
:1003A000E35AFF4FF0829FB7F8940B8FEA89FB89DD
:1003B00080818062CFCFCF93DF93EC01888D88233B
:1003C000B9F0AA89BB89E889F9898C9185FD03C0B8
:1003D000808186FD0DC00FB607FCF7CF8C9185FF9D
:1003E000F2CF808185FFEDCFCE010E946C01E9CF75
:1003F000DF91CF91089585ED91E00E94600121E0A9
:10040000892B09F420E0822F089580E090E0892B69
:1004100029F00E94FB0181110C940000089590E0E6
:10042000FC01E458FF4F2491FC01E255FF4F349149
:10043000FC01E656FF4FE491EE23C9F0222339F088
:10044000233001F1A8F4213019F1223029F1F0E034
:10045000EE0FFF1FEE58FF4FA591B4918FB7F894A0
:10046000EC91611126C030953E233C938FBF0895D7
:100470002730A9F02830C9F0243049F78091800056
:100480008F7D03C0809180008F7780938000DFCFC5
:1004900084B58F7784BDDBCF84B58F7DFBCF809112
:1004A000B0008F778093B000D2CF8091B0008F7D65
:1004B000F9CF3E2BDACFCF93DF9390E0FC01E255EA
:1004C000FF4F249186569F4FFC0184918823D1F0E1
:1004D00090E0880F991FFC01E859FF4FA591B49156
:1004E000FC01EE58FF4FC591D49161110EC09FB72A
:1004F000F8948C91E22FE0958E238C932881E2234F
:10050000E8839FBFDF91CF9108958FB7F894EC9166
:10051000E22BEC938FBFF6CF1F93CF93DF93182F6F
:10052000EB0161E00E945B02209739F460E0812FCB
:10053000DF91CF911F910C940F02CF3FD10511F4A1
:1005400061E0F5CFE12FF0E0E458FF4FE491E330B4
:1005500031F140F4E130B1F0E230E1F0C038D105E2
:100560007CF7E4CFE73029F1E83059F1E430B1F716
:1005700080918000806280938000D0938B00C09334
:100580008A0004C084B5806884BDC7BDDF91CF9167
:100590001F91089584B5806284BDC8BDF7CF809156
:1005A0008000806880938000D0938900C093880089
:1005B000EDCF8091B00080688093B000C093B3000D
:1005C000E5CF8091B00080628093B000C093B4000A
:1005D000DDCF3FB7F8948091CB019091CC01A091F1
:1005E000CD01B091CE0126B5A89B05C02F3F19F0D3
:1005F0000196A11DB11D3FBFBA2FA92F982F8827A3
:10060000BC01CD01620F711D811D911D42E0660F7D
:10061000771F881F991F4A95D1F70895AF92BF920F
:10062000CF92DF92EF92FF920F931F93CF93DF93BE
:100630006C017B018B01040F151FEB015E01AE18ED
:10064000BF08C017D10759F06991D601ED91FC910F
:100650000190F081E02DC6010995892B79F7C5013C
:10066000DF91CF911F910F91FF90EF90DF90CF908E
:10067000BF90AF900895EF92FF920F931F93CF9387
:10068000DF93EC018C01F12CE12C023011054CF0D0
:10069000C80101970E943B0302501109E80EF91EA0
:1006A000F4CFCE01817099278E0D9F1DDF91CF91E0
:1006B0001F910F91FF90EF9008957F928F929F92DC
:1006C000AF92BF92CF92DF92EF92FF920F931F9360
:1006D000CF93DF93782EEA01E0916C03F0916D03E4
:1006E0003F968B010C5E1F4F43E4C42ED12CC801F2
:1006F000B6010E94C80B5B0158E2E52EF12CC8013F
:10070000B7010E94C80B8B010F5F1F4F6497CE018A
:10071000B6010E94C80B4B01CE01B7010E94C80B65
:10072000EB01219624513109C901B6010E94C80B81
:100730006B01C901B7010E94C80B6F5F7F4F20E0BA
:1007400030E0A901A0E0808191818A159B0570F1BC
:100750000817190758F1828193818815990518F1B6
:10076000C817D90728F1220F331F441F551F2160D6
:100770003496AF5F7A12E7CF209368033093690312
:1007800040936A0350936B0381E0DF91CF911F91F7
:100790000F91FF90EF90DF90CF90BF90AF909F9020
:1007A0008F907F9008958C159D0510F480E0EDCF1B
:1007B00068177907D8F3220F331F441F551FD8CF6E
:1007C0001F920F920FB60F9211242F933F938F9386
:1007D0009F93AF93BF938091C7019091C801A0915F
:1007E000C901B091CA013091C60123E0230F2D3712
:1007F00058F50196A11DB11D2093C6018093C70134
:100800009093C801A093C901B093CA018091CB0114
:100810009091CC01A091CD01B091CE010196A11D86
:10082000B11D8093CB019093CC01A093CD01B093E7
:10083000CE01BF91AF919F918F913F912F910F90DA
:100840000FBE0F901F90189526E8230F0296A11D4A
:10085000B11DD2CF1F920F920FB60F9211242F937A
:100860003F934F935F936F937F938F939F93AF9338
:10087000BF93EF93FF9385ED91E00E946C01FF9190
:10088000EF91BF91AF919F918F917F916F915F9108
:100890004F913F912F910F900FBE0F901F90189581
:1008A0001F920F920FB60F9211242F938F939F9345
:1008B000EF93FF93E091E501F091E6018081E091F3
:1008C000EB01F091EC0182FD1BC090818091EE0163
:1008D0008F5F8F732091EF01821741F0E091EE015D
:1008E000F0E0EB52FE4F958F8093EE01FF91EF9178
:1008F0009F918F912F910F900FBE0F901F90189581
:100900008081F4CF1F920F920FB60F9211242F9374
:100910003F934F935F936F937F938F939F93AF9387
:10092000BF93EF93FF93E0917602F091770290816D
:100930008091780298232091790230917A022F3F9A
:10094000320731F02F5F3F4F30937A0220937902C4
:1009500080917402811135C0911116C020917902E5
:1009600030917A022536310558F010927B0230938F
:100970007E0220937D0281E080937C02809374024A
:1009800010927A021092790280917302882341F0CA
:1009900080917202911161C061E0811161C02D9A54
:1009A000FF91EF91BF91AF919F918F917F916F9147
:1009B0005F914F913F912F910F900FBE0F901F901D
:1009C0001895809174028130A1F49923E9F2E091A5
:1009D0007C028E0F80937C02F0E0EE0FFF1FEC583C
:1009E000FD4F2091790230917A023287218782E08F
:1009F000C5CF80917402823039F5911119C0E09110
:100A00007C0281E0E03720F080937B0283E0B6CF68
:100A10008E0F80937C02F0E0EE0FFF1FEC58FD4F2D
:100A20002091790230917A023287218781E0A6CF26
:100A30002091790230917A022536310508F4A4CF4D
:100A400083E080937402A0CF80917402833009F018
:100A50009BCF992309F494CF97CF882321F060E0AE
:100A60000E940F029DCF2D989BCFCF93DF93E5ED92
:100A7000F1E01382128288EE93E0A0E0B0E084837C
:100A80009583A683B78385E091E09183808385EC8D
:100A900090E09587848784EC90E09787868780EC48
:100AA00090E0918B808B81EC90E0938B828B82EC39
:100AB00090E0958B848B86EC90E0978B868B118EE3
:100AC000128E138E148EC4E7D2E0D0938E03C0939F
:100AD0008D0380E00E948C00E2E7F2E01082118238
:100AE00010927903D0936D03C0936C0383E0DF9180
:100AF000CF910C948C00789484B5826084BD84B5C9
:100B0000816084BD85B5826085BD85B5816085BD08
:100B100080916E00816080936E00109281008091C0
:100B20008100826080938100809181008160809348
:100B30008100809180008160809380008091B1006D
:100B400084608093B1008091B00081608093B00098
:100B500080917A00846080937A0080917A0082602C
:100B600080937A0080917A00816080937A008091EE
:100B70007A00806880937A001092C10060E08091D2
:100B800075020E945B0282E08093B0008093B10006
:100B900084E68093B3008093B4001092B2008091F9
:100BA0007402833011F41092740284E08093700018
:100BB0008091720291E09093730261E0882309F4BE
:100BC000B1C00E945B0261E086E00E945B0260E0CF
:100BD00086E00E940F0288248A94982C5401C5E074
:100BE0006C2E712C0E94E9021B012C01B4E6CB2E65
:100BF000D12CE12CF12C0E94E902621973098409BD
:100C00009509683E734081059105A8F321E0C21A59
:100C1000D108E108F10888EE280E83E0381E411C57
:100C2000511CC114D104E104F10429F7809174022C
:100C3000833009F0C1C18091B201811113C04BE929
:100C400050E063E171E085ED91E00E940E0342E027
:100C500050E06FEA71E085ED91E00E940E0381E0C3
:100C60008093B2018DE792E09093C2018093C1011D
:100C700080917C0290E09093C4018093C301209105
:100C80007B02222321F010927B0210927C022091A1
:100C90007B022093C5011092B9011092BA01109203
:100CA000BB011092BC0120E82093670320917F02D2
:100CB00030918002265831092C35310590F484306A
:100CC000910591F5809181029091820281974897D8
:100CD00040F480918302909184020897089708F469
:100CE0005FC04091C3015091C4014A31510508F4DD
:100CF00082C0E091C101F091C201808191810A9787
:100D000008F062C01092BD018092B9019092BA01C0
:100D1000A092BB01B092BC0181E08093670383E1A4
:100D200090E04DC08DE04DCF84349105D1F6809197
:100D3000810290918202825491098F9790F620E36C
:100D400032E040E956E060E372E080E20E945D0339
:100D5000882339F2E091C101F091C201EA57FF4FB7
:100D6000808191810897089708F0BBCF8091680334
:100D700090916903A0916A03B0916B038093B901CC
:100D80009093BA01A093BB01B093BC0180E2809321
:100D9000BD0188E090E09093B6018093B5010FC04B
:100DA0001092BD018092B9019092BA01A092BB014C
:100DB000B092BC0181E88093670388E090E0909353
:100DC0005E0380935D03C5C08281938184974A97B7
:100DD00090F423E030E060E0C12CD12C76018481D6
:100DE00095810897089738F486819781823191051B
:100DF00090F18097D0F181E08093D40189E793E06E
:100E00009093D2018093D1011092D3010E94A90046
:100E1000813009F010C1C12CD12C7601C0E0E091E5
:100E20006C03F0916D0390858091D401891708F0CF
:100E300041C00E94A900D82F0E94A900D11130C042
:100E4000813009F0F8C0CC0CDD1CEE1CFF1C68944E
:100E5000C0F8CF5FE4CF8930910568F2419758F62A
:100E6000CC0CDD1CEE1CFF1C06C0CC0CDD1CEE1CEB
:100E7000FF1C6894C0F86F5F2E5F3F4F34962417B5
:100E8000350708F4ACCF6093BD01C092B901D09290
:100E9000BA01E092BB01F092BC0183E190E07BCF0C
:100EA000D13009F0C8C08111C6C0CC0CDD1CEE1CCD
:100EB000FF1CCFCF8C2F90E0909366038093650347
:100EC000C0926803D0926903E0926A03F0926B03C8
:100ED0008C2D8F7390E09093620380936103960151
:100EE00046E0369527954A95E1F72F7133273093E1
:100EF000600320935F03960122273071232B31F486
:100F0000805C9F4F909362038093610380E8D3FCE1
:100F100088E88093670381859285833E984028F412
:100F2000809167038160809367038FE090E09093E6
:100F30005E0380935D03C093BD01C092B901D0925E
:100F4000BA01E092BB01F092BC019093B60180938C
:100F5000B5018091B9019091BA01A091BB01B09106
:100F6000BC018C3028E09207A105B10509F459C3F2
:100F700008F01FC3813324E09207A105B10509F4ED
:100F800050C308F0ECC281319105A105B10509F407
:100F90002FC308F0D4C28C309105A105B10509F426
:100FA00040C34097A105B10509F47BC38091740249
:100FB000833011F410927402C091B301D091B40146
:100FC000CE01CE30D10514F08DE090E097FF02C045
:100FD00090E080E00E943B0310910001112311F08A
:100FE00090E080E0BC0189E00E948C0270E060E04B
:100FF000111111C0DE011D97B7FF02C0B0E0A0E0E3
:101000002FEF30E00E94DC0B2DE030E040E050E0BC
:101010000E948F0BB90185E00E948C0280E090E075
:10102000892B09F4DFCD0E94FB01882309F4D7CD79
:101030000E940000D4CDE0916C03F0916D03838594
:10104000948588974D9708F046C0858596850C97BE
:101050000B9708F040C083E08093D4018CEB91E0C3
:101060009093D2018093D1011092D3010E94A900E4
:10107000813089F50E94A900C82F81112CC0C12C94
:10108000D12C7601E0916C03F0916D0390858091F5
:10109000D401891708F069C00E94A900182FC33035
:1010A000B1F00E94A900D82FC33021F40E94A900FA
:1010B000D81311C0113009F04EC0D1110CC0CC0CA6
:1010C000DD1CEE1CFF1C6894C0F8CF5FDBCF0E94D4
:1010D000A900181731F38091C3019091C4018236A1
:1010E000910508F48BC0E091C101F091C2018281A9
:1010F0009381C397859708F081C0848195814A9731
:10110000439708F07BC020EB31E040E155E060EB15
:1011100071E08CE20E945D03882309F46FC080E3D4
:101120008093BD018091680390916903A0916A0347
:10113000B0916B038093B9019093BA01A093BB0166
:10114000B093BC0182E090E29093B8018093B70124
:1011500089E090E020CE1111BECFD13009F0BBCF95
:10116000CC0CDD1CEE1CFF1CB0CF8C2F90E09093BC
:10117000660380936503C0926803D0926903E0928E
:101180006A03F0926B032C2D30E08D2DC432F8F4FD
:1011900080E88093670330936203209361038D2D71
:1011A00090E09093600380935F03E0FE03C088E8C3
:1011B000809367038185928583379A4028F48091D4
:1011C000670381608093670380E190E0B0CE90E98F
:1011D00090936703D7FE03C098E990936703309319
:1011E0006203209361038F7790E090936003809374
:1011F0005F03F0926403E0926303DCCF8091C3014C
:101200009091C401CC97E1F5E091C101F091C20148
:1012100082819381865891098D35910588F5848165
:101220009581CE978C9760F526E232E04CE256E04D
:1012300064EF71E08CE10E945D03882309F1E09185
:10124000C101F091C201EA58FF4F80819181079757
:101250000897B0F48091680390916903A0916A03A4
:10126000B0916B038093B9019093BA01A093BB0135
:10127000B093BC018CE18093BD0186E090E08BCD02
:101280002091C3013091C401E091C101F091C201EC
:10129000828193812232310589F4AC014850510991
:1012A0004730510558F4DF01AE5BBF4F4D915C9163
:1012B000485051094730510508F45DC08D579109D8
:1012C0008735910508F469C0E091C101F091C20130
:1012D00082819381825491098F9798F48091C30100
:1012E0009091C4018430910509F091C08481958169
:1012F0008197489730F4868197810897089708F47A
:10130000B3C0E0916C03F0916D038085823209F0E7
:10131000BBC0E091C101F091C20182819381049729
:10132000059708F0B1C0848195810B970A9708F062
:10133000ABC02CE033E04CE157E064E071E08FE0BB
:101340000E945D03882309F49FC0809168039091F7
:101350006903A0916A03B0916B038093B9019093E4
:10136000BA01A093BB01B093BC018FE08093BD0193
:1013700083E090E010CD1092BD018092B90190926F
:10138000BA01A092BB01B092BC0181E080936703D7
:1013900070925E0360925D03DCCD2432310508F467
:1013A00093CF84819581CE978C9708F08DCF2EE0D6
:1013B00032E04AE256E06EE072E080E10E945D03B6
:1013C000882309F481CFE091C101F091C201EA5B69
:1013D000FF4F808191810897079708F075CF809122
:1013E000680390916903A0916A03B0916B038093A5
:1013F000B9019093BA01A093BB01B093BC0180E105
:101400008093BD017092B6016092B501C1CF843462
:10141000910508F476CF84819581815491098F9745
:1014200008F06FCF29E232E04BE756E069E272E064
:1014300080E20E945D03882309F463CF80916803F2
:1014400090916903A0916A03B0916B038093B901F5
:101450009093BA01A093BB01B093BC0180E280934A
:10146000BD0181E190E097CC1092BD018092B9015D
:101470009092BA01A092BB01B092BC0181E080932E
:10148000670381E190E09BCC0091C3011091C401FE
:101490000630110508F48ACDE091C101F091C20136
:1014A000329625EC3DE94CE151E8C3E0D0E08AE01A
:1014B000F82E8481958161917191F89E6001F99E69
:1014C000D00C1124DB01AA0FBB1FAA0FBB1FAA0F50
:1014D000BB1FE12CCA16DB0688F0F69ED001F79EF2
:1014E000B00D112463E0880F991F6A95E1F7EE248F
:1014F000E394A817B90710F482E0E82E63E971E0DD
:1015000080E091E00E945D0B9B01AC012E252196AD
:10151000C017D10771F62093B9013093BA014093F7
:10152000BB015093BC0180E28093BD011092B601D3
:101530001092B50110925E0310925D030ACD8032C5
:101540009105A105B10509F4B5C08197A105B105C3
:1015500009F02CCD1092B4011092B30127CD8A3539
:1015600024E09207A105B10509F442C068F488356A
:1015700024E09207A105B10509F49CC08935944087
:10158000A105B10539F312CD8B3524E09207A105F1
:10159000B10509F486C08C359440A105B10509F068
:1015A00005CD60E086E00E940F0281E0809300019B
:1015B000D1CF883524E0920721E0A207B10509F4D4
:1015C00079C008F03FC0803228E09207A105B1053C
:1015D00009F470C0C8F4803128E09207A105B10574
:1015E00009F45FC081319840A105B10509F0DECC56
:1015F0008091B3019091B401019797FDABCF909387
:10160000B4018093B301D2CC813228E09207A105C6
:10161000B10509F49FCF81339440A140B10509F091
:10162000C5CC61E086E00E940F0280910001882312
:1016300031F08AE190E09093B4018093B30110926D
:101640000001B4CC8B3524E0920721E0A207B1055C
:1016500041F170F4893524E0920721E0A207B10539
:1016600009F478CF8A359440A140B10509F29ECCA7
:101670008E3D26EF920721E1A20724EBB20709F481
:1016800090CF8F3228E0920723E5A2072DEDB20715
:1016900009F487CF8C359440A140B10509F086CC80
:1016A00080CF8091B3019091B40101968B31910567
:1016B0000CF4A5CF8AE190E0A2CFDB018F939F933A
:1016C0000E94AE0BBF91AF91A29F800D911DA39F71
:1016D000900DB29F900D11240895A1E21A2EAA1B1D
:1016E000BB1BFD010DC0AA1FBB1FEE1FFF1FA217D2
:1016F000B307E407F50720F0A21BB30BE40BF50BCF
:10170000661F771F881F991F1A9469F76095709557
:10171000809590959B01AC01BD01CF010895052EE8
:1017200097FB1EF400940E94A60B57FD07D00E9461
:101730006D0B07FC03D04EF40C94A60B509540950E
:10174000309521953F4F4F4F5F4F0895909580956D
:10175000709561957F4F8F4F9F4F08950E94B90BF1
:10176000A59F900DB49F900DA49F800D911D1124F5
:101770000895A29FB001B39FC001A39F700D811D6A
:101780001124911DB29F700D811D1124911D08958A
:10179000AA1BBB1B51E107C0AA1FBB1FA617B70797
:1017A00010F0A61BB70B881F991F5A95A9F78095B3
:1017B0009095BC01CD0108950E94B90BB7FF089523
:1017C000821B930B0895EE0FFF1F0590F491E02DFF
:0617D0000994F894FFCF1C
:1017D60001000000008E010E032F01DB0160013EB7
:1017E6000152015468652066756E6374696F6E20D8
:1017F6006465636F64652826726573756C747329F6
:10180600292069732064657072656361746564205C
:10181600616E64206D6179206E6F7420776F726BD4
:1018260020617320657870656374656421204A754C
:10183600737420757365206465636F646528292059
:10184600776974686F7574206120706172616D6567
:1018560074657220616E64204972526563656976AB
:1018660065722E6465636F64656449524461746190
:101876002E3C6669656C646E616D653E202E000DBA
:021886000A0056
:00000001FF
